{
  "address": "0xB540Ebb34C8433427C15A2D284ab093B1231F4e2",
  "abi": [
    {
      "inputs": [
        {
          "internalType": "address",
          "name": "_owner",
          "type": "address"
        },
        {
          "internalType": "address",
          "name": "_verifier",
          "type": "address"
        },
        {
          "internalType": "string",
          "name": "_question",
          "type": "string"
        }
      ],
      "stateMutability": "nonpayable",
      "type": "constructor"
    },
    {
      "inputs": [
        {
          "internalType": "address",
          "name": "owner",
          "type": "address"
        }
      ],
      "name": "OwnableInvalidOwner",
      "type": "error"
    },
    {
      "inputs": [
        {
          "internalType": "address",
          "name": "account",
          "type": "address"
        }
      ],
      "name": "OwnableUnauthorizedAccount",
      "type": "error"
    },
    {
      "inputs": [
        {
          "internalType": "uint256",
          "name": "commitment",
          "type": "uint256"
        }
      ],
      "name": "Voting__CommitmentAlreadyAdded",
      "type": "error"
    },
    {
      "inputs": [],
      "name": "Voting__EmptyTree",
      "type": "error"
    },
    {
      "inputs": [],
      "name": "Voting__InvalidProof",
      "type": "error"
    },
    {
      "inputs": [],
      "name": "Voting__InvalidRoot",
      "type": "error"
    },
    {
      "inputs": [],
      "name": "Voting__NotAllowedToVote",
      "type": "error"
    },
    {
      "inputs": [
        {
          "internalType": "bytes32",
          "name": "nullifierHash",
          "type": "bytes32"
        }
      ],
      "name": "Voting__NullifierHashAlreadyUsed",
      "type": "error"
    },
    {
      "anonymous": false,
      "inputs": [
        {
          "indexed": false,
          "internalType": "uint256",
          "name": "index",
          "type": "uint256"
        },
        {
          "indexed": false,
          "internalType": "uint256",
          "name": "value",
          "type": "uint256"
        }
      ],
      "name": "NewLeaf",
      "type": "event"
    },
    {
      "anonymous": false,
      "inputs": [
        {
          "indexed": true,
          "internalType": "address",
          "name": "previousOwner",
          "type": "address"
        },
        {
          "indexed": true,
          "internalType": "address",
          "name": "newOwner",
          "type": "address"
        }
      ],
      "name": "OwnershipTransferred",
      "type": "event"
    },
    {
      "anonymous": false,
      "inputs": [
        {
          "indexed": true,
          "internalType": "bytes32",
          "name": "nullifierHash",
          "type": "bytes32"
        },
        {
          "indexed": true,
          "internalType": "address",
          "name": "voter",
          "type": "address"
        },
        {
          "indexed": false,
          "internalType": "bool",
          "name": "vote",
          "type": "bool"
        },
        {
          "indexed": false,
          "internalType": "uint256",
          "name": "timestamp",
          "type": "uint256"
        },
        {
          "indexed": false,
          "internalType": "uint256",
          "name": "totalYes",
          "type": "uint256"
        },
        {
          "indexed": false,
          "internalType": "uint256",
          "name": "totalNo",
          "type": "uint256"
        }
      ],
      "name": "VoteCast",
      "type": "event"
    },
    {
      "anonymous": false,
      "inputs": [
        {
          "indexed": true,
          "internalType": "address",
          "name": "voter",
          "type": "address"
        }
      ],
      "name": "VoterAdded",
      "type": "event"
    },
    {
      "inputs": [
        {
          "internalType": "address[]",
          "name": "voters",
          "type": "address[]"
        },
        {
          "internalType": "bool[]",
          "name": "statuses",
          "type": "bool[]"
        }
      ],
      "name": "addVoters",
      "outputs": [],
      "stateMutability": "nonpayable",
      "type": "function"
    },
    {
      "inputs": [
        {
          "internalType": "address",
          "name": "_voter",
          "type": "address"
        }
      ],
      "name": "getVoterData",
      "outputs": [
        {
          "internalType": "bool",
          "name": "voter",
          "type": "bool"
        },
        {
          "internalType": "bool",
          "name": "registered",
          "type": "bool"
        }
      ],
      "stateMutability": "view",
      "type": "function"
    },
    {
      "inputs": [],
      "name": "getVotingData",
      "outputs": [
        {
          "internalType": "string",
          "name": "question",
          "type": "string"
        },
        {
          "internalType": "address",
          "name": "contractOwner",
          "type": "address"
        },
        {
          "internalType": "uint256",
          "name": "yesVotes",
          "type": "uint256"
        },
        {
          "internalType": "uint256",
          "name": "noVotes",
          "type": "uint256"
        },
        {
          "internalType": "uint256",
          "name": "size",
          "type": "uint256"
        },
        {
          "internalType": "uint256",
          "name": "depth",
          "type": "uint256"
        },
        {
          "internalType": "uint256",
          "name": "root",
          "type": "uint256"
        }
      ],
      "stateMutability": "view",
      "type": "function"
    },
    {
      "inputs": [],
      "name": "owner",
      "outputs": [
        {
          "internalType": "address",
          "name": "",
          "type": "address"
        }
      ],
      "stateMutability": "view",
      "type": "function"
    },
    {
      "inputs": [
        {
          "internalType": "uint256",
          "name": "_commitment",
          "type": "uint256"
        }
      ],
      "name": "register",
      "outputs": [],
      "stateMutability": "nonpayable",
      "type": "function"
    },
    {
      "inputs": [],
      "name": "renounceOwnership",
      "outputs": [],
      "stateMutability": "nonpayable",
      "type": "function"
    },
    {
      "inputs": [
        {
          "internalType": "address",
          "name": "newOwner",
          "type": "address"
        }
      ],
      "name": "transferOwnership",
      "outputs": [],
      "stateMutability": "nonpayable",
      "type": "function"
    },
    {
      "inputs": [
        {
          "internalType": "bytes",
          "name": "_proof",
          "type": "bytes"
        },
        {
          "internalType": "bytes32",
          "name": "_nullifierHash",
          "type": "bytes32"
        },
        {
          "internalType": "bytes32",
          "name": "_root",
          "type": "bytes32"
        },
        {
          "internalType": "bytes32",
          "name": "_vote",
          "type": "bytes32"
        },
        {
          "internalType": "bytes32",
          "name": "_depth",
          "type": "bytes32"
        }
      ],
      "name": "vote",
      "outputs": [],
      "stateMutability": "nonpayable",
      "type": "function"
    }
  ],
  "transactionHash": "0xe5c48d77b205f4a5b6552e814a6e9d1ec6acc68658032eb1f364cd0f014d00dd",
  "args": [
    "0x7db7EC6721cD5c83624E6b628210799E0B561200",
    "0xCe96a1cB778Ce74950DbFfd9fae490f29da64c63",
    "Should we build zk apps?"
  ],
  "numDeployments": 1,
  "solcInputHash": "c6e7c1368b8be8303ab02df288e54b68",
  "bytecode": "0x608060405234801561001057600080fd5b5060405161108038038061108083398101604081905261002f9161011e565b826001600160a01b03811661005e57604051631e4fbdf760e01b81526000600482015260240160405180910390fd5b6100678161009c565b5060016100748282610295565b5050600c80546001600160a01b0319166001600160a01b039290921691909117905550610353565b600080546001600160a01b038381166001600160a01b0319831681178455604051919092169283917f8be0079c531659141344cd1fd0a4f28419497f9722a3daafe3b4186f6b6457e09190a35050565b80516001600160a01b038116811461010357600080fd5b919050565b634e487b7160e01b600052604160045260246000fd5b60008060006060848603121561013357600080fd5b61013c846100ec565b925061014a602085016100ec565b60408501519092506001600160401b0381111561016657600080fd5b8401601f8101861361017757600080fd5b80516001600160401b0381111561019057610190610108565b604051601f8201601f19908116603f011681016001600160401b03811182821017156101be576101be610108565b6040528181528282016020018810156101d657600080fd5b60005b828110156101f5576020818501810151838301820152016101d9565b506000602083830101528093505050509250925092565b600181811c9082168061022057607f821691505b60208210810361024057634e487b7160e01b600052602260045260246000fd5b50919050565b601f82111561029057806000526020600020601f840160051c8101602085101561026d5750805b601f840160051c820191505b8181101561028d5760008155600101610279565b50505b505050565b81516001600160401b038111156102ae576102ae610108565b6102c2816102bc845461020c565b84610246565b6020601f8211600181146102f657600083156102de5750848201515b600019600385901b1c1916600184901b17845561028d565b600084815260208120601f198516915b828110156103265787850151825560209485019460019092019101610306565b50848210156103445786840151600019600387901b60f8161c191681555b50505050600190811b01905550565b610d1e806103626000396000f3fe608060405234801561001057600080fd5b50600436106100885760003560e01c8063b5b831e21161005b578063b5b831e21461011e578063f207564e14610139578063f2fde38b1461014c578063ff29897d1461015f57600080fd5b80631ac9b6c31461008d578063715018a6146100a25780638da5cb5b146100aa5780638fb4cd80146100ca575b600080fd5b6100a061009b366004610947565b610172565b005b6100a0610446565b6000546040516001600160a01b0390911681526020015b60405180910390f35b6101076100d8366004610a1d565b6001600160a01b031660009081526002602090815260408083205460099092529091205460ff91821692911690565b6040805192151583529015156020830152016100c1565b61012661045a565b6040516100c19796959493929190610a93565b6100a0610147366004610ae0565b61059e565b6100a061015a366004610a1d565b610723565b6100a061016d366004610b45565b610761565b6000848152600a602052604090205460ff16156101aa57604051630c3ffb0960e21b8152600481018590526024015b60405180910390fd5b604051637a3e5e1d60e11b81526005600482015260009073B8522eDcd0F7894ce9f59FE9b6a2e5F5EFbBBDf59063f47cbc3a90602401602060405180830381865af41580156101fd573d6000803e3d6000fd5b505050506040513d601f19601f820116820180604052508101906102219190610bb6565b9050600084900361024557604051631cdc57bb60e31b815260040160405180910390fd5b8381146102655760405163e1b55f2b60e01b815260040160405180910390fd5b60408051600480825260a0820190925260009160208201608080368337019050509050858160008151811061029c5761029c610bcf565b60200260200101818152505084816001815181106102bc576102bc610bcf565b60200260200101818152505083816002815181106102dc576102dc610bcf565b60200260200101818152505082816003815181106102fc576102fc610bcf565b6020908102919091010152600c54604051633a94343960e21b81526001600160a01b039091169063ea50d0e490610339908a908590600401610be5565b602060405180830381865afa158015610356573d6000803e3d6000fd5b505050506040513d601f19601f8201168201806040525081019061037a9190610c4d565b6103975760405163e8a02c4b60e01b815260040160405180910390fd5b6000868152600a60205260409020805460ff191660019081179091558490036103d457600380549060006103ca83610c6a565b91905055506103ea565b600480549060006103e483610c6a565b91905055505b60035460045460408051600188148152426020820152908101929092526060820152339087907fdeb132643171a42da82dca5065904dc8d9ad8cd79074da8797bc9fc046e825889060800160405180910390a350505050505050565b61044e6108b4565b61045860006108e1565b565b60606000806000806000806001805461047290610c91565b80601f016020809104026020016040519081016040528092919081815260200182805461049e90610c91565b80156104eb5780601f106104c0576101008083540402835291602001916104eb565b820191906000526020600020905b8154815290600101906020018083116104ce57829003601f168201915b505050505096506105046000546001600160a01b031690565b6003546004805460058054600654604051637a3e5e1d60e11b815294850192909252949a509298509650919450925073B8522eDcd0F7894ce9f59FE9b6a2e5F5EFbBBDf59063f47cbc3a90602401602060405180830381865af415801561056f573d6000803e3d6000fd5b505050506040513d601f19601f820116820180604052508101906105939190610bb6565b905090919293949596565b3360009081526002602052604090205460ff166105ce57604051632fa7af6960e01b815260040160405180910390fd5b3360009081526009602052604090205460ff16156105ff57604051632fa7af6960e01b815260040160405180910390fd5b6000818152600b602052604090205460ff161561063257604051636d6592b960e11b8152600481018290526024016101a1565b60058054604051632f85497160e01b81526004810192909252602482018390529073B8522eDcd0F7894ce9f59FE9b6a2e5F5EFbBBDf590632f85497190604401602060405180830381865af415801561068f573d6000803e3d6000fd5b505050506040513d601f19601f820116820180604052508101906106b39190610bb6565b503360009081526009602090815260408083208054600160ff199182168117909255868552600b84529382902080549094161790925581518381529081018490527f83086dd2f9a7759c568afebf9730985f32eada5336224c32f153e8089d8f5ea7910160405180910390a15050565b61072b6108b4565b6001600160a01b03811661075557604051631e4fbdf760e01b8152600060048201526024016101a1565b61075e816108e1565b50565b6107696108b4565b8281146107c45760405162461bcd60e51b815260206004820152602360248201527f566f7465727320616e64207374617475736573206c656e677468206d69736d616044820152620e8c6d60eb1b60648201526084016101a1565b60005b838110156108ad578282828181106107e1576107e1610bcf565b90506020020160208101906107f69190610ccb565b6002600087878581811061080c5761080c610bcf565b90506020020160208101906108219190610a1d565b6001600160a01b031681526020810191909152604001600020805460ff191691151591909117905584848281811061085b5761085b610bcf565b90506020020160208101906108709190610a1d565b6001600160a01b03167fa636f4a11e2d3ba7f89d042ecb0a6b886716e98cd49d8fd876ee0f73bced42b860405160405180910390a26001016107c7565b5050505050565b6000546001600160a01b031633146104585760405163118cdaa760e01b81523360048201526024016101a1565b600080546001600160a01b038381166001600160a01b0319831681178455604051919092169283917f8be0079c531659141344cd1fd0a4f28419497f9722a3daafe3b4186f6b6457e09190a35050565b634e487b7160e01b600052604160045260246000fd5b600080600080600060a0868803121561095f57600080fd5b853567ffffffffffffffff81111561097657600080fd5b8601601f8101881361098757600080fd5b803567ffffffffffffffff8111156109a1576109a1610931565b604051601f8201601f19908116603f0116810167ffffffffffffffff811182821017156109d0576109d0610931565b6040528181528282016020018a10156109e857600080fd5b816020840160208301376000602092820183015299908801359850604088013597606081013597506080013595509350505050565b600060208284031215610a2f57600080fd5b81356001600160a01b0381168114610a4657600080fd5b9392505050565b6000815180845260005b81811015610a7357602081850181015186830182015201610a57565b506000602082860101526020601f19601f83011685010191505092915050565b60e081526000610aa660e083018a610a4d565b6001600160a01b039890981660208301525060408101959095526060850193909352608084019190915260a083015260c090910152919050565b600060208284031215610af257600080fd5b5035919050565b60008083601f840112610b0b57600080fd5b50813567ffffffffffffffff811115610b2357600080fd5b6020830191508360208260051b8501011115610b3e57600080fd5b9250929050565b60008060008060408587031215610b5b57600080fd5b843567ffffffffffffffff811115610b7257600080fd5b610b7e87828801610af9565b909550935050602085013567ffffffffffffffff811115610b9e57600080fd5b610baa87828801610af9565b95989497509550505050565b600060208284031215610bc857600080fd5b5051919050565b634e487b7160e01b600052603260045260246000fd5b604081526000610bf86040830185610a4d565b828103602084015280845180835260208301915060208601925060005b81811015610c33578351835260209384019390920191600101610c15565b50909695505050505050565b801515811461075e57600080fd5b600060208284031215610c5f57600080fd5b8151610a4681610c3f565b600060018201610c8a57634e487b7160e01b600052601160045260246000fd5b5060010190565b600181811c90821680610ca557607f821691505b602082108103610cc557634e487b7160e01b600052602260045260246000fd5b50919050565b600060208284031215610cdd57600080fd5b8135610a4681610c3f56fea2646970667358221220066ae015019751a7419985cdad82b1474cc38beb6ebe95cfca8dc199c3a9580b64736f6c634300081b0033",
  "deployedBytecode": "0x608060405234801561001057600080fd5b50600436106100885760003560e01c8063b5b831e21161005b578063b5b831e21461011e578063f207564e14610139578063f2fde38b1461014c578063ff29897d1461015f57600080fd5b80631ac9b6c31461008d578063715018a6146100a25780638da5cb5b146100aa5780638fb4cd80146100ca575b600080fd5b6100a061009b366004610947565b610172565b005b6100a0610446565b6000546040516001600160a01b0390911681526020015b60405180910390f35b6101076100d8366004610a1d565b6001600160a01b031660009081526002602090815260408083205460099092529091205460ff91821692911690565b6040805192151583529015156020830152016100c1565b61012661045a565b6040516100c19796959493929190610a93565b6100a0610147366004610ae0565b61059e565b6100a061015a366004610a1d565b610723565b6100a061016d366004610b45565b610761565b6000848152600a602052604090205460ff16156101aa57604051630c3ffb0960e21b8152600481018590526024015b60405180910390fd5b604051637a3e5e1d60e11b81526005600482015260009073__$99c94127c8f73905b08f2d52133ba9abca$__9063f47cbc3a90602401602060405180830381865af41580156101fd573d6000803e3d6000fd5b505050506040513d601f19601f820116820180604052508101906102219190610bb6565b9050600084900361024557604051631cdc57bb60e31b815260040160405180910390fd5b8381146102655760405163e1b55f2b60e01b815260040160405180910390fd5b60408051600480825260a0820190925260009160208201608080368337019050509050858160008151811061029c5761029c610bcf565b60200260200101818152505084816001815181106102bc576102bc610bcf565b60200260200101818152505083816002815181106102dc576102dc610bcf565b60200260200101818152505082816003815181106102fc576102fc610bcf565b6020908102919091010152600c54604051633a94343960e21b81526001600160a01b039091169063ea50d0e490610339908a908590600401610be5565b602060405180830381865afa158015610356573d6000803e3d6000fd5b505050506040513d601f19601f8201168201806040525081019061037a9190610c4d565b6103975760405163e8a02c4b60e01b815260040160405180910390fd5b6000868152600a60205260409020805460ff191660019081179091558490036103d457600380549060006103ca83610c6a565b91905055506103ea565b600480549060006103e483610c6a565b91905055505b60035460045460408051600188148152426020820152908101929092526060820152339087907fdeb132643171a42da82dca5065904dc8d9ad8cd79074da8797bc9fc046e825889060800160405180910390a350505050505050565b61044e6108b4565b61045860006108e1565b565b60606000806000806000806001805461047290610c91565b80601f016020809104026020016040519081016040528092919081815260200182805461049e90610c91565b80156104eb5780601f106104c0576101008083540402835291602001916104eb565b820191906000526020600020905b8154815290600101906020018083116104ce57829003601f168201915b505050505096506105046000546001600160a01b031690565b6003546004805460058054600654604051637a3e5e1d60e11b815294850192909252949a509298509650919450925073__$99c94127c8f73905b08f2d52133ba9abca$__9063f47cbc3a90602401602060405180830381865af415801561056f573d6000803e3d6000fd5b505050506040513d601f19601f820116820180604052508101906105939190610bb6565b905090919293949596565b3360009081526002602052604090205460ff166105ce57604051632fa7af6960e01b815260040160405180910390fd5b3360009081526009602052604090205460ff16156105ff57604051632fa7af6960e01b815260040160405180910390fd5b6000818152600b602052604090205460ff161561063257604051636d6592b960e11b8152600481018290526024016101a1565b60058054604051632f85497160e01b81526004810192909252602482018390529073__$99c94127c8f73905b08f2d52133ba9abca$__90632f85497190604401602060405180830381865af415801561068f573d6000803e3d6000fd5b505050506040513d601f19601f820116820180604052508101906106b39190610bb6565b503360009081526009602090815260408083208054600160ff199182168117909255868552600b84529382902080549094161790925581518381529081018490527f83086dd2f9a7759c568afebf9730985f32eada5336224c32f153e8089d8f5ea7910160405180910390a15050565b61072b6108b4565b6001600160a01b03811661075557604051631e4fbdf760e01b8152600060048201526024016101a1565b61075e816108e1565b50565b6107696108b4565b8281146107c45760405162461bcd60e51b815260206004820152602360248201527f566f7465727320616e64207374617475736573206c656e677468206d69736d616044820152620e8c6d60eb1b60648201526084016101a1565b60005b838110156108ad578282828181106107e1576107e1610bcf565b90506020020160208101906107f69190610ccb565b6002600087878581811061080c5761080c610bcf565b90506020020160208101906108219190610a1d565b6001600160a01b031681526020810191909152604001600020805460ff191691151591909117905584848281811061085b5761085b610bcf565b90506020020160208101906108709190610a1d565b6001600160a01b03167fa636f4a11e2d3ba7f89d042ecb0a6b886716e98cd49d8fd876ee0f73bced42b860405160405180910390a26001016107c7565b5050505050565b6000546001600160a01b031633146104585760405163118cdaa760e01b81523360048201526024016101a1565b600080546001600160a01b038381166001600160a01b0319831681178455604051919092169283917f8be0079c531659141344cd1fd0a4f28419497f9722a3daafe3b4186f6b6457e09190a35050565b634e487b7160e01b600052604160045260246000fd5b600080600080600060a0868803121561095f57600080fd5b853567ffffffffffffffff81111561097657600080fd5b8601601f8101881361098757600080fd5b803567ffffffffffffffff8111156109a1576109a1610931565b604051601f8201601f19908116603f0116810167ffffffffffffffff811182821017156109d0576109d0610931565b6040528181528282016020018a10156109e857600080fd5b816020840160208301376000602092820183015299908801359850604088013597606081013597506080013595509350505050565b600060208284031215610a2f57600080fd5b81356001600160a01b0381168114610a4657600080fd5b9392505050565b6000815180845260005b81811015610a7357602081850181015186830182015201610a57565b506000602082860101526020601f19601f83011685010191505092915050565b60e081526000610aa660e083018a610a4d565b6001600160a01b039890981660208301525060408101959095526060850193909352608084019190915260a083015260c090910152919050565b600060208284031215610af257600080fd5b5035919050565b60008083601f840112610b0b57600080fd5b50813567ffffffffffffffff811115610b2357600080fd5b6020830191508360208260051b8501011115610b3e57600080fd5b9250929050565b60008060008060408587031215610b5b57600080fd5b843567ffffffffffffffff811115610b7257600080fd5b610b7e87828801610af9565b909550935050602085013567ffffffffffffffff811115610b9e57600080fd5b610baa87828801610af9565b95989497509550505050565b600060208284031215610bc857600080fd5b5051919050565b634e487b7160e01b600052603260045260246000fd5b604081526000610bf86040830185610a4d565b828103602084015280845180835260208301915060208601925060005b81811015610c33578351835260209384019390920191600101610c15565b50909695505050505050565b801515811461075e57600080fd5b600060208284031215610c5f57600080fd5b8151610a4681610c3f565b600060018201610c8a57634e487b7160e01b600052601160045260246000fd5b5060010190565b600181811c90821680610ca557607f821691505b602082108103610cc557634e487b7160e01b600052602260045260246000fd5b50919050565b600060208284031215610cdd57600080fd5b8135610a4681610c3f56fea2646970667358221220066ae015019751a7419985cdad82b1474cc38beb6ebe95cfca8dc199c3a9580b64736f6c634300081b0033",
  "libraries": {
    "LeanIMT": "0xB8522eDcd0F7894ce9f59FE9b6a2e5F5EFbBBDf5"
  },
  "devdoc": {
    "errors": {
      "OwnableInvalidOwner(address)": [
        {
          "details": "The owner is not a valid owner account. (eg. `address(0)`)"
        }
      ],
      "OwnableUnauthorizedAccount(address)": [
        {
          "details": "The caller account is not authorized to perform an operation."
        }
      ]
    },
    "kind": "dev",
    "methods": {
      "addVoters(address[],bool[])": {
        "details": "Only the contract owner can call this function. Emits `VoterAdded` for each updated entry.",
        "params": {
          "statuses": "True to allow, false to revoke",
          "voters": "Addresses to update in the allowlist"
        }
      },
      "owner()": {
        "details": "Returns the address of the current owner."
      },
      "register(uint256)": {
        "details": "A given allowlisted address can register exactly once. Reverts if      the caller is not allowlisted or has already registered, or if the      same commitment has been previously inserted. Emits `NewLeaf`.",
        "params": {
          "_commitment": "The Poseidon-based commitment to insert into the IMT"
        }
      },
      "renounceOwnership()": {
        "details": "Leaves the contract without owner. It will not be possible to call `onlyOwner` functions. Can only be called by the current owner. NOTE: Renouncing ownership will leave the contract without an owner, thereby disabling any functionality that is only available to the owner."
      },
      "transferOwnership(address)": {
        "details": "Transfers ownership of the contract to a new account (`newOwner`). Can only be called by the current owner."
      },
      "vote(bytes,bytes32,bytes32,bytes32,bytes32)": {
        "details": "Enforces single-use via `s_nullifierHashes`. Public inputs order must      match the circuit: root, nullifierHash, vote, depth. The `_vote`      value is interpreted as: 1 => yes, any other value => no. Emits `VoteCast`.",
        "params": {
          "_depth": "Tree depth used by the circuit",
          "_nullifierHash": "Unique nullifier to prevent double voting",
          "_proof": "Ultra Honk proof bytes",
          "_root": "Merkle root corresponding to the registered commitments tree",
          "_vote": "Encoded vote: 1 for yes, otherwise counted as no"
        }
      }
    },
    "version": 1
  },
  "userdoc": {
    "errors": {
      "Voting__CommitmentAlreadyAdded(uint256)": [
        {
          "notice": "Errors //////"
        }
      ]
    },
    "events": {
      "VoterAdded(address)": {
        "notice": "Events ///"
      }
    },
    "kind": "user",
    "methods": {
      "addVoters(address[],bool[])": {
        "notice": "Batch updates the allowlist of voter EOAs"
      },
      "getVotingData()": {
        "notice": "Getter Functions ///"
      },
      "register(uint256)": {
        "notice": "Registers a commitment leaf for an allowlisted address"
      },
      "vote(bytes,bytes32,bytes32,bytes32,bytes32)": {
        "notice": "Casts a vote using a zero-knowledge proof"
      }
    },
    "version": 1
  },
  "storageLayout": {
    "storage": [
      {
        "astId": 8,
        "contract": "contracts/Voting.sol:Voting",
        "label": "_owner",
        "offset": 0,
        "slot": "0",
        "type": "t_address"
      },
      {
        "astId": 1253,
        "contract": "contracts/Voting.sol:Voting",
        "label": "s_question",
        "offset": 0,
        "slot": "1",
        "type": "t_string_storage"
      },
      {
        "astId": 1257,
        "contract": "contracts/Voting.sol:Voting",
        "label": "s_voters",
        "offset": 0,
        "slot": "2",
        "type": "t_mapping(t_address,t_bool)"
      },
      {
        "astId": 1259,
        "contract": "contracts/Voting.sol:Voting",
        "label": "s_yesVotes",
        "offset": 0,
        "slot": "3",
        "type": "t_uint256"
      },
      {
        "astId": 1261,
        "contract": "contracts/Voting.sol:Voting",
        "label": "s_noVotes",
        "offset": 0,
        "slot": "4",
        "type": "t_uint256"
      },
      {
        "astId": 1265,
        "contract": "contracts/Voting.sol:Voting",
        "label": "s_tree",
        "offset": 0,
        "slot": "5",
        "type": "t_struct(LeanIMTData)201_storage"
      },
      {
        "astId": 1269,
        "contract": "contracts/Voting.sol:Voting",
        "label": "s_hasRegistered",
        "offset": 0,
        "slot": "9",
        "type": "t_mapping(t_address,t_bool)"
      },
      {
        "astId": 1273,
        "contract": "contracts/Voting.sol:Voting",
        "label": "s_nullifierHashes",
        "offset": 0,
        "slot": "10",
        "type": "t_mapping(t_uint256,t_bool)"
      },
      {
        "astId": 1277,
        "contract": "contracts/Voting.sol:Voting",
        "label": "s_commitments",
        "offset": 0,
        "slot": "11",
        "type": "t_mapping(t_uint256,t_bool)"
      },
      {
        "astId": 1281,
        "contract": "contracts/Voting.sol:Voting",
        "label": "i_verifier",
        "offset": 0,
        "slot": "12",
        "type": "t_contract(IVerifier)1201"
      }
    ],
    "types": {
      "t_address": {
        "encoding": "inplace",
        "label": "address",
        "numberOfBytes": "20"
      },
      "t_bool": {
        "encoding": "inplace",
        "label": "bool",
        "numberOfBytes": "1"
      },
      "t_contract(IVerifier)1201": {
        "encoding": "inplace",
        "label": "contract IVerifier",
        "numberOfBytes": "20"
      },
      "t_mapping(t_address,t_bool)": {
        "encoding": "mapping",
        "key": "t_address",
        "label": "mapping(address => bool)",
        "numberOfBytes": "32",
        "value": "t_bool"
      },
      "t_mapping(t_uint256,t_bool)": {
        "encoding": "mapping",
        "key": "t_uint256",
        "label": "mapping(uint256 => bool)",
        "numberOfBytes": "32",
        "value": "t_bool"
      },
      "t_mapping(t_uint256,t_uint256)": {
        "encoding": "mapping",
        "key": "t_uint256",
        "label": "mapping(uint256 => uint256)",
        "numberOfBytes": "32",
        "value": "t_uint256"
      },
      "t_string_storage": {
        "encoding": "bytes",
        "label": "string",
        "numberOfBytes": "32"
      },
      "t_struct(LeanIMTData)201_storage": {
        "encoding": "inplace",
        "label": "struct LeanIMTData",
        "members": [
          {
            "astId": 190,
            "contract": "contracts/Voting.sol:Voting",
            "label": "size",
            "offset": 0,
            "slot": "0",
            "type": "t_uint256"
          },
          {
            "astId": 192,
            "contract": "contracts/Voting.sol:Voting",
            "label": "depth",
            "offset": 0,
            "slot": "1",
            "type": "t_uint256"
          },
          {
            "astId": 196,
            "contract": "contracts/Voting.sol:Voting",
            "label": "sideNodes",
            "offset": 0,
            "slot": "2",
            "type": "t_mapping(t_uint256,t_uint256)"
          },
          {
            "astId": 200,
            "contract": "contracts/Voting.sol:Voting",
            "label": "leaves",
            "offset": 0,
            "slot": "3",
            "type": "t_mapping(t_uint256,t_uint256)"
          }
        ],
        "numberOfBytes": "128"
      },
      "t_uint256": {
        "encoding": "inplace",
        "label": "uint256",
        "numberOfBytes": "32"
      }
    }
  }
}