{
  "address": "0x916c465cc46e0669Caed568355E4b0d49e52a851",
  "abi": [
    {
      "inputs": [
        {
          "internalType": "address",
          "name": "_liquidityProvider",
          "type": "address"
        },
        {
          "internalType": "address",
          "name": "_oracle",
          "type": "address"
        },
        {
          "internalType": "string",
          "name": "_question",
          "type": "string"
        },
        {
          "internalType": "uint256",
          "name": "_initialTokenValue",
          "type": "uint256"
        },
        {
          "internalType": "uint8",
          "name": "_initialYesProbability",
          "type": "uint8"
        },
        {
          "internalType": "uint8",
          "name": "_percentageToLock",
          "type": "uint8"
        }
      ],
      "stateMutability": "payable",
      "type": "constructor"
    },
    {
      "inputs": [
        {
          "internalType": "address",
          "name": "owner",
          "type": "address"
        }
      ],
      "name": "OwnableInvalidOwner",
      "type": "error"
    },
    {
      "inputs": [
        {
          "internalType": "address",
          "name": "account",
          "type": "address"
        }
      ],
      "name": "OwnableUnauthorizedAccount",
      "type": "error"
    },
    {
      "inputs": [],
      "name": "PredictionMarket__AmountMustBeGreaterThanZero",
      "type": "error"
    },
    {
      "inputs": [],
      "name": "PredictionMarket__ETHTransferFailed",
      "type": "error"
    },
    {
      "inputs": [
        {
          "internalType": "uint256",
          "name": "_tradingAmount",
          "type": "uint256"
        },
        {
          "internalType": "uint256",
          "name": "_allowance",
          "type": "uint256"
        }
      ],
      "name": "PredictionMarket__InsufficientAllowance",
      "type": "error"
    },
    {
      "inputs": [
        {
          "internalType": "uint256",
          "name": "_tradingAmount",
          "type": "uint256"
        },
        {
          "internalType": "uint256",
          "name": "_userBalance",
          "type": "uint256"
        }
      ],
      "name": "PredictionMarket__InsufficientBalance",
      "type": "error"
    },
    {
      "inputs": [],
      "name": "PredictionMarket__InsufficientLiquidity",
      "type": "error"
    },
    {
      "inputs": [
        {
          "internalType": "enum PredictionMarket.Outcome",
          "name": "_outcome",
          "type": "uint8"
        },
        {
          "internalType": "uint256",
          "name": "_amountToken",
          "type": "uint256"
        }
      ],
      "name": "PredictionMarket__InsufficientTokenReserve",
      "type": "error"
    },
    {
      "inputs": [],
      "name": "PredictionMarket__InsufficientWinningTokens",
      "type": "error"
    },
    {
      "inputs": [],
      "name": "PredictionMarket__InvalidPercentageToLock",
      "type": "error"
    },
    {
      "inputs": [],
      "name": "PredictionMarket__InvalidProbability",
      "type": "error"
    },
    {
      "inputs": [],
      "name": "PredictionMarket__MustProvideETHForInitialLiquidity",
      "type": "error"
    },
    {
      "inputs": [],
      "name": "PredictionMarket__MustSendExactETHAmount",
      "type": "error"
    },
    {
      "inputs": [],
      "name": "PredictionMarket__OnlyOracleCanReport",
      "type": "error"
    },
    {
      "inputs": [],
      "name": "PredictionMarket__OwnerCannotCall",
      "type": "error"
    },
    {
      "inputs": [],
      "name": "PredictionMarket__PredictionAlreadyReported",
      "type": "error"
    },
    {
      "inputs": [],
      "name": "PredictionMarket__PredictionNotReported",
      "type": "error"
    },
    {
      "inputs": [],
      "name": "PredictionMarket__TokenTransferFailed",
      "type": "error"
    },
    {
      "anonymous": false,
      "inputs": [
        {
          "indexed": true,
          "internalType": "address",
          "name": "provider",
          "type": "address"
        },
        {
          "indexed": false,
          "internalType": "uint256",
          "name": "ethAmount",
          "type": "uint256"
        },
        {
          "indexed": false,
          "internalType": "uint256",
          "name": "tokensAmount",
          "type": "uint256"
        }
      ],
      "name": "LiquidityAdded",
      "type": "event"
    },
    {
      "anonymous": false,
      "inputs": [
        {
          "indexed": true,
          "internalType": "address",
          "name": "provider",
          "type": "address"
        },
        {
          "indexed": false,
          "internalType": "uint256",
          "name": "ethAmount",
          "type": "uint256"
        },
        {
          "indexed": false,
          "internalType": "uint256",
          "name": "tokensAmount",
          "type": "uint256"
        }
      ],
      "name": "LiquidityRemoved",
      "type": "event"
    },
    {
      "anonymous": false,
      "inputs": [
        {
          "indexed": true,
          "internalType": "address",
          "name": "oracle",
          "type": "address"
        },
        {
          "indexed": false,
          "internalType": "enum PredictionMarket.Outcome",
          "name": "winningOutcome",
          "type": "uint8"
        },
        {
          "indexed": false,
          "internalType": "address",
          "name": "winningToken",
          "type": "address"
        }
      ],
      "name": "MarketReported",
      "type": "event"
    },
    {
      "anonymous": false,
      "inputs": [
        {
          "indexed": true,
          "internalType": "address",
          "name": "resolver",
          "type": "address"
        },
        {
          "indexed": false,
          "internalType": "uint256",
          "name": "totalEthToSend",
          "type": "uint256"
        }
      ],
      "name": "MarketResolved",
      "type": "event"
    },
    {
      "anonymous": false,
      "inputs": [
        {
          "indexed": true,
          "internalType": "address",
          "name": "previousOwner",
          "type": "address"
        },
        {
          "indexed": true,
          "internalType": "address",
          "name": "newOwner",
          "type": "address"
        }
      ],
      "name": "OwnershipTransferred",
      "type": "event"
    },
    {
      "anonymous": false,
      "inputs": [
        {
          "indexed": true,
          "internalType": "address",
          "name": "buyer",
          "type": "address"
        },
        {
          "indexed": false,
          "internalType": "enum PredictionMarket.Outcome",
          "name": "outcome",
          "type": "uint8"
        },
        {
          "indexed": false,
          "internalType": "uint256",
          "name": "amount",
          "type": "uint256"
        },
        {
          "indexed": false,
          "internalType": "uint256",
          "name": "ethAmount",
          "type": "uint256"
        }
      ],
      "name": "TokensPurchased",
      "type": "event"
    },
    {
      "anonymous": false,
      "inputs": [
        {
          "indexed": true,
          "internalType": "address",
          "name": "seller",
          "type": "address"
        },
        {
          "indexed": false,
          "internalType": "enum PredictionMarket.Outcome",
          "name": "outcome",
          "type": "uint8"
        },
        {
          "indexed": false,
          "internalType": "uint256",
          "name": "amount",
          "type": "uint256"
        },
        {
          "indexed": false,
          "internalType": "uint256",
          "name": "ethAmount",
          "type": "uint256"
        }
      ],
      "name": "TokensSold",
      "type": "event"
    },
    {
      "anonymous": false,
      "inputs": [
        {
          "indexed": true,
          "internalType": "address",
          "name": "redeemer",
          "type": "address"
        },
        {
          "indexed": false,
          "internalType": "uint256",
          "name": "amount",
          "type": "uint256"
        },
        {
          "indexed": false,
          "internalType": "uint256",
          "name": "ethAmount",
          "type": "uint256"
        }
      ],
      "name": "WinningTokensRedeemed",
      "type": "event"
    },
    {
      "inputs": [],
      "name": "addLiquidity",
      "outputs": [],
      "stateMutability": "payable",
      "type": "function"
    },
    {
      "inputs": [
        {
          "internalType": "enum PredictionMarket.Outcome",
          "name": "_outcome",
          "type": "uint8"
        },
        {
          "internalType": "uint256",
          "name": "_amountTokenToBuy",
          "type": "uint256"
        }
      ],
      "name": "buyTokensWithETH",
      "outputs": [],
      "stateMutability": "payable",
      "type": "function"
    },
    {
      "inputs": [
        {
          "internalType": "enum PredictionMarket.Outcome",
          "name": "_outcome",
          "type": "uint8"
        },
        {
          "internalType": "uint256",
          "name": "_tradingAmount",
          "type": "uint256"
        }
      ],
      "name": "getBuyPriceInEth",
      "outputs": [
        {
          "internalType": "uint256",
          "name": "",
          "type": "uint256"
        }
      ],
      "stateMutability": "view",
      "type": "function"
    },
    {
      "inputs": [],
      "name": "getPrediction",
      "outputs": [
        {
          "internalType": "string",
          "name": "question",
          "type": "string"
        },
        {
          "internalType": "string",
          "name": "outcome1",
          "type": "string"
        },
        {
          "internalType": "string",
          "name": "outcome2",
          "type": "string"
        },
        {
          "internalType": "address",
          "name": "oracle",
          "type": "address"
        },
        {
          "internalType": "uint256",
          "name": "initialTokenValue",
          "type": "uint256"
        },
        {
          "internalType": "uint256",
          "name": "yesTokenReserve",
          "type": "uint256"
        },
        {
          "internalType": "uint256",
          "name": "noTokenReserve",
          "type": "uint256"
        },
        {
          "internalType": "bool",
          "name": "isReported",
          "type": "bool"
        },
        {
          "internalType": "address",
          "name": "yesToken",
          "type": "address"
        },
        {
          "internalType": "address",
          "name": "noToken",
          "type": "address"
        },
        {
          "internalType": "address",
          "name": "winningToken",
          "type": "address"
        },
        {
          "internalType": "uint256",
          "name": "ethCollateral",
          "type": "uint256"
        },
        {
          "internalType": "uint256",
          "name": "lpTradingRevenue",
          "type": "uint256"
        },
        {
          "internalType": "address",
          "name": "predictionMarketOwner",
          "type": "address"
        },
        {
          "internalType": "uint256",
          "name": "initialProbability",
          "type": "uint256"
        },
        {
          "internalType": "uint256",
          "name": "percentageLocked",
          "type": "uint256"
        }
      ],
      "stateMutability": "view",
      "type": "function"
    },
    {
      "inputs": [
        {
          "internalType": "enum PredictionMarket.Outcome",
          "name": "_outcome",
          "type": "uint8"
        },
        {
          "internalType": "uint256",
          "name": "_tradingAmount",
          "type": "uint256"
        }
      ],
      "name": "getSellPriceInEth",
      "outputs": [
        {
          "internalType": "uint256",
          "name": "",
          "type": "uint256"
        }
      ],
      "stateMutability": "view",
      "type": "function"
    },
    {
      "inputs": [],
      "name": "i_initialTokenValue",
      "outputs": [
        {
          "internalType": "uint256",
          "name": "",
          "type": "uint256"
        }
      ],
      "stateMutability": "view",
      "type": "function"
    },
    {
      "inputs": [],
      "name": "i_initialYesProbability",
      "outputs": [
        {
          "internalType": "uint256",
          "name": "",
          "type": "uint256"
        }
      ],
      "stateMutability": "view",
      "type": "function"
    },
    {
      "inputs": [],
      "name": "i_noToken",
      "outputs": [
        {
          "internalType": "contract PredictionMarketToken",
          "name": "",
          "type": "address"
        }
      ],
      "stateMutability": "view",
      "type": "function"
    },
    {
      "inputs": [],
      "name": "i_oracle",
      "outputs": [
        {
          "internalType": "address",
          "name": "",
          "type": "address"
        }
      ],
      "stateMutability": "view",
      "type": "function"
    },
    {
      "inputs": [],
      "name": "i_percentageLocked",
      "outputs": [
        {
          "internalType": "uint256",
          "name": "",
          "type": "uint256"
        }
      ],
      "stateMutability": "view",
      "type": "function"
    },
    {
      "inputs": [],
      "name": "i_yesToken",
      "outputs": [
        {
          "internalType": "contract PredictionMarketToken",
          "name": "",
          "type": "address"
        }
      ],
      "stateMutability": "view",
      "type": "function"
    },
    {
      "inputs": [],
      "name": "owner",
      "outputs": [
        {
          "internalType": "address",
          "name": "",
          "type": "address"
        }
      ],
      "stateMutability": "view",
      "type": "function"
    },
    {
      "inputs": [
        {
          "internalType": "uint256",
          "name": "_amount",
          "type": "uint256"
        }
      ],
      "name": "redeemWinningTokens",
      "outputs": [],
      "stateMutability": "nonpayable",
      "type": "function"
    },
    {
      "inputs": [
        {
          "internalType": "uint256",
          "name": "_ethToWithdraw",
          "type": "uint256"
        }
      ],
      "name": "removeLiquidity",
      "outputs": [],
      "stateMutability": "nonpayable",
      "type": "function"
    },
    {
      "inputs": [],
      "name": "renounceOwnership",
      "outputs": [],
      "stateMutability": "nonpayable",
      "type": "function"
    },
    {
      "inputs": [
        {
          "internalType": "enum PredictionMarket.Outcome",
          "name": "_winningOutcome",
          "type": "uint8"
        }
      ],
      "name": "report",
      "outputs": [],
      "stateMutability": "nonpayable",
      "type": "function"
    },
    {
      "inputs": [],
      "name": "resolveMarketAndWithdraw",
      "outputs": [
        {
          "internalType": "uint256",
          "name": "ethRedeemed",
          "type": "uint256"
        }
      ],
      "stateMutability": "nonpayable",
      "type": "function"
    },
    {
      "inputs": [],
      "name": "s_ethCollateral",
      "outputs": [
        {
          "internalType": "uint256",
          "name": "",
          "type": "uint256"
        }
      ],
      "stateMutability": "view",
      "type": "function"
    },
    {
      "inputs": [],
      "name": "s_isReported",
      "outputs": [
        {
          "internalType": "bool",
          "name": "",
          "type": "bool"
        }
      ],
      "stateMutability": "view",
      "type": "function"
    },
    {
      "inputs": [],
      "name": "s_lpTradingRevenue",
      "outputs": [
        {
          "internalType": "uint256",
          "name": "",
          "type": "uint256"
        }
      ],
      "stateMutability": "view",
      "type": "function"
    },
    {
      "inputs": [],
      "name": "s_question",
      "outputs": [
        {
          "internalType": "string",
          "name": "",
          "type": "string"
        }
      ],
      "stateMutability": "view",
      "type": "function"
    },
    {
      "inputs": [],
      "name": "s_winningToken",
      "outputs": [
        {
          "internalType": "contract PredictionMarketToken",
          "name": "",
          "type": "address"
        }
      ],
      "stateMutability": "view",
      "type": "function"
    },
    {
      "inputs": [
        {
          "internalType": "enum PredictionMarket.Outcome",
          "name": "_outcome",
          "type": "uint8"
        },
        {
          "internalType": "uint256",
          "name": "_tradingAmount",
          "type": "uint256"
        }
      ],
      "name": "sellTokensForEth",
      "outputs": [],
      "stateMutability": "nonpayable",
      "type": "function"
    },
    {
      "inputs": [
        {
          "internalType": "address",
          "name": "newOwner",
          "type": "address"
        }
      ],
      "name": "transferOwnership",
      "outputs": [],
      "stateMutability": "nonpayable",
      "type": "function"
    }
  ],
  "transactionHash": "0xb20f3b7310715b48246a858929b0d0805094c35657efc901b111a6c4b5feadcc",
  "args": [
    "0x7db7EC6721cD5c83624E6b628210799E0B561200",
    "0x7db7EC6721cD5c83624E6b628210799E0B561200",
    "Will the green car win the race?",
    "100000000000000",
    50,
    10
  ],
  "numDeployments": 1,
  "solcInputHash": "d60de7fbcf5632387ad0ef6f9bbb61ba",
  "bytecode": "0x608060408181526000916200338580380380916200001e828562000824565b8339810160c082820312620005cb57620000388262000848565b90620000476020840162000848565b838501519095906001600160401b038111620007f65784019180601f84011215620007f65782516001600160401b038111620007e257865193601f199262000098601f840185166020018762000824565b82865260208383010111620005cb57908391825b828110620007ca575050840160200152606085015193620000de60a0620000d66080890162000862565b970162000862565b9360018060a01b0392838316978815620007b25785546001600160a01b031981168a1787558a51908a9087167f8be0079c531659141344cd1fd0a4f28419497f9722a3daafe3b4186f6b6457e08980a33415620007a3575060ff16998a15801562000797575b620007865760ff871615801562000777575b6200076657600380546001600160a01b031916918616919091179055600487905560058a905560ff86166006558151916001600160401b0383116200065157600754600181811c911680156200075b575b602082101462000747579081601f85949311620006e3575b50602091601f8411600114620006715750869262000665575b50508160011b916000199060031b1c1916176007555b8651610d8680820196916001600160401b03881181891017620006515780620025df98838a833960808152600b60808201526a4f7574636f6d652059455360a81b60a082015260c06020820152600360c08201526259455360e81b60e08201528a8c82015287606082015261010092839103019087f08015620005f357600180546001600160a01b0319169187169190911790558951828101989092906001600160401b038a11848b10176200063d57833960808852600a6080890152694f7574636f6d65204e4f60b01b60a089015260c06020890152816002988960c0820152614e4f60f01b60e08201528a8c82015287606082015203019085f08015620005a95786546001600160a01b031916908416178655346008819055670de0b6b3a7640000810290670de0b6b3a763ffff199082040162000601578115620006295704936200034b60ff8216620003458b8862000871565b62000871565b908160011b918083048814901517156200060157612710809204996064039060ff82116200061557906200034560ff806200038a941692168862000871565b8060011b90808204881490151715620006015704918060015416803b15620005fd5788516340c10f1960e01b808252306004830152602482018890529186908290604490829084905af18015620005f357620005dd575b508187541690813b15620005d9578951908152306004820152602481018790529085908290604490829084905af18015620005cf57908591620005b3575b50508862000530575b879850829795969762000475575b85887fac1d76749e5447b7b16f5ab61447e1bd502f3bb4807af3b28e620d1700a6ee4582888151903482526020820152a251611d299081620008b68239f35b9554885163a9059cbb60e01b81526001600160a01b03929092166004830152602482019290925292949293509091602091849160449183918691165af19081156200052557509184917fac1d76749e5447b7b16f5ab61447e1bd502f3bb4807af3b28e620d1700a6ee4593620004ef575b80808062000436565b620005159060203d6020116200051d575b6200050c818362000824565b8101906200089b565b5038620004e6565b503d62000500565b8551903d90823e3d90fd5b600154885163a9059cbb60e01b81526001600160a01b0384166004820152602481019a909a526020908a906044908290889086165af1988915620005a95788999896979862000585575b509695949662000428565b620005a19060203d6020116200051d576200050c818362000824565b50386200057a565b88513d86823e3d90fd5b620005be90620007fa565b620005cb5783386200041f565b8380fd5b89513d87823e3d90fd5b8580fd5b620005eb90959195620007fa565b9338620003e1565b8a513d88823e3d90fd5b8480fd5b634e487b7160e01b85526011600452602485fd5b634e487b7160e01b86526011600452602486fd5b634e487b7160e01b85526012600452602485fd5b634e487b7160e01b88526041600452602488fd5b634e487b7160e01b86526041600452602486fd5b015190503880620001d8565b60078852600080516020620033658339815191529316875b818110620006ca5750908460019594939210620006b0575b505050811b01600755620001ee565b015160001960f88460031b161c19169055388080620006a1565b9293602060018192878601518155019501930162000689565b600788529192509060008051602062003365833981519152601f850160051c810191602086106200073c575b90601f86959493920160051c01905b8181106200072d5750620001bf565b8881558594506001016200071e565b90915081906200070f565b634e487b7160e01b87526022600452602487fd5b90607f1690620001a7565b895163103731c360e21b8152600490fd5b50606460ff8816101562000156565b89516324f7391760e21b8152600490fd5b5060648b101562000144565b63fe6ef5a160e01b8152600490fd5b8951631e4fbdf760e01b815260048101879052602490fd5b602082820181015188830182015286945001620000ac565b634e487b7160e01b83526041600452602483fd5b5080fd5b6001600160401b0381116200080e57604052565b634e487b7160e01b600052604160045260246000fd5b601f909101601f19168101906001600160401b038211908210176200080e57604052565b51906001600160a01b03821682036200085d57565b600080fd5b519060ff821682036200085d57565b818102929181159184041417156200088557565b634e487b7160e01b600052601160045260246000fd5b908160209103126200085d575180151581036200085d579056fe60808060405260048036101561001457600080fd5b600091823560e01c90816306a9cd5e1461121e5750806314926d98146111ea5780631816ca6f146111c15780632dc7fd76146111a75780634c5b59a514610ffb5780635cb2deb514610fd257806365e23abc14610e5357806370a38aee14610b18578063715018a614610abe57806379b3d94a14610a955780637c1bb47e14610a73578063892d0f50146109aa5780638da5cb5b146109835780638dfeb95214610965578063910ec81b1461094757806391c721e31461091a5780639c8f9f23146106365780639f615ee1146103d4578063aa7a9399146103b1578063ac3b90bb14610394578063df592ec314610376578063e8078d94146101e4578063f1ce1640146101c35763f2fde38b1461012a57600080fd5b346101bf5760203660031901126101bf576001600160a01b03813581811692908390036101bb5761015961157a565b82156101a35750600054826bffffffffffffffffffffffff60a01b821617600055167f8be0079c531659141344cd1fd0a4f28419497f9722a3daafe3b4186f6b6457e0600080a380f35b604051631e4fbdf760e01b8152908101849052602490fd5b8380fd5b5080fd5b82346101e157806003193601126101e1576020600554604051908152f35b80fd5b50816003193601126101bf576101f861157a565b60ff600a541661036757341561035857670de0b6b3a764000080340290348204036103455761022a83918354906115cf565b91610237346008546115ef565b6008556001546001600160a01b039081169190823b156101bb57604080516340c10f1960e01b8082523085830190815260208101899052909591928792849290918391859183910103925af190811561033a578591610326575b50506002541691823b156101bb576040805191825230928201928352602083018690529092849284928391859183910103925af1801561031b57610307575b50506040519034825260208201527fac1d76749e5447b7b16f5ab61447e1bd502f3bb4807af3b28e620d1700a6ee4560403392a280f35b610310906113fb565b6101bf5781386102d0565b6040513d84823e3d90fd5b61032f906113fb565b6101bb578338610291565b6040513d87823e3d90fd5b634e487b7160e01b835260118252602483fd5b604051632688641b60e21b8152fd5b6040516378e34bb960e01b8152fd5b82346101e157806003193601126101e1576020600854604051908152f35b50346101bf57816003193601126101bf5760209054604051908152f35b82346101e157806003193601126101e157602060ff600a54166040519015158152f35b50346101bf57816003193601126101bf5760018060a01b0360035416908054926006549060055490610404611447565b60085460095483546001546002546040516306fdde0360e01b8082529c969b909a6001600160a01b039485169895979195928516949093169290828c8381875afa9b8c1561060f57839c61061a575b506040519d8e52828e8381885afa9d8e1561060f57839e6105eb575b506040516370a0823160e01b8152308382015291602083602481885afa9283156105e05784936105ac575b50604051906370a0823160e01b82523090820152602081602481895afa9384156105a05793610567575b50600a54956040519e8f9e8f9e8f9161020080845283016104e491611555565b82810360208401526104f591611555565b90808203906040015261050791611555565b6060909d015260808d015260a08c015260c08b015260ff8316151560e08b01526101008a015261012089015260081c6001600160a01b03166101408801526101608701526101808601526101a08501526101c08401526101e08301520390f35b9092506020813d602011610598575b8161058360209383611425565b81010312610593575191386104c4565b600080fd5b3d9150610576565b604051903d90823e3d90fd5b9092506020813d6020116105d8575b816105c860209383611425565b810103126105935751913861049a565b3d91506105bb565b6040513d86823e3d90fd5b610608919e503d8085833e6106008183611425565b810190611c94565b9c3861046f565b6040513d85823e3d90fd5b61062f919c503d8085833e6106008183611425565b9a38610453565b50346101bf57602090816003193601126108135780359161065561157a565b60ff600a541661090a5782156108fa57670de0b6b3a76400008302670de0b6b3a763ffff19848204016108e757825461068d916115cf565b6001546040516370a0823160e01b80825230828701529294926001600160a01b0392831692918581602481875afa9081156108af5789916108ba575b50858360025416926024604051809581938252308a8301525afa9182156108af578992610880575b50861180918115610876575b5061083c575060085480871161082b579061071a8789949361161f565b600855813b156108135760408051632770a7eb60e21b80825230878301908152602081018a9052909491928692849290918391859183910103925af19081156105e0578491610817575b50506002541690813b15610813576040805191825230858301908152602081018890529192849284928391859183910103925af1801561031b576107fb575b5080808087335af16107b3611648565b50156107ec57506040519283528201527f96cd817c6329656790ef8fba7675405193677d39619571282f5e21f3a98cd05960403392a280f35b604051632fdb18b560e01b8152fd5b610804906113fb565b61080f5784386107a3565b8480fd5b8280fd5b610820906113fb565b610813578238610764565b60405163224e54d760e01b81528490fd5b83868960449360001461086b57610864905b60405163a4d71b8160e01b8152938401906115fc565b6024820152fd5b50610864600161084e565b90508611386106fd565b9091508581813d83116108a8575b6108988183611425565b81010312610593575190386106f1565b503d61088e565b6040513d8b823e3d90fd5b90508581813d83116108e0575b6108d18183611425565b810103126105935751386106c9565b503d6108c7565b634e487b7160e01b855260118352602485fd5b50604051632688641b60e21b8152fd5b506040516378e34bb960e01b8152fd5b82346101e157806003193601126101e157600a5460405160089190911c6001600160a01b03168152602090f35b82346101e157806003193601126101e1576020600654604051908152f35b82346101e157806003193601126101e1576020600954604051908152f35b82346101e157806003193601126101e157546040516001600160a01b039091168152602090f35b50346101bf5760203660031901126101bf578035906002821015610813576003546001600160a01b03919082163303610a6457600a549060ff8216610367575060019083610a5a57828254165b6101008360a81b039060081b16906affffffffffffffffffffff60a81b16171780600a55610a2860405180946115fc565b60081c1660208201527f54abe5cff8746fc59eefd3a10a4e9821354cd951ffef23d64fdb7939b6e2e41960403392a280f35b82600254166109f7565b60405163d101b32160e01b8152fd5b82346101e1576020610a8d610a87366113dc565b90611997565b604051908152f35b82346101e157806003193601126101e1576001546040516001600160a01b039091168152602090f35b82346101e157806003193601126101e157610ad761157a565b600080546001600160a01b0319811682556001600160a01b03167f8be0079c531659141344cd1fd0a4f28419497f9722a3daafe3b4186f6b6457e08280a380f35b50346101bf57610b27366113dc565b60ff600a939293541661090a5780156108fa5783546001600160a01b03929083163314610e4457610b588285611997565b926008548411610e34576002851015610e215784610e175780600154165b16604051906370a0823160e01b80835233848401526020928381602481865afa80156108af5786918a91610de6575b5010610d73575060408051636eb1769f60e11b808252338683019081523060208201529092859183918291010381865afa80156108af5786918a91610d42575b5010610cbb57508187916064604051809481936323b872dd60e01b835233898401523060248401528960448401525af18015610cb057610c82575b5050610c2e8360085461161f565b6008558480808086335af1610c41611648565b50156107ec5750907fdb6c1cc84b96330a9be015b7f4d49df42a035945bf4bc3423e48a6e4259dbb7b91610c7c604051928392339684611690565b0390a280f35b81610ca192903d10610ca9575b610c998183611425565b810190611678565b503880610c20565b503d610c8f565b6040513d89823e3d90fd5b6040805191825233828601908152306020820152919285928a92889287928392889291839182910103915afa9283156105a05792610d11575b506040516377594e6960e01b815292830152602482015260449150fd5b90915083813d8311610d3b575b610d288183611425565b8101031261059357604492519084610cf4565b503d610d1e565b809250858092503d8311610d6c575b610d5b8183611425565b810103126105935785905138610be5565b503d610d51565b878584808794602460405180988193825233898301525afa9283156105a05792610db5575b5060405163053ab6d560e21b815292830152602482015260449150fd5b90915083813d8311610ddf575b610dcc8183611425565b8101031261059357604492519084610d98565b503d610dc2565b809250858092503d8311610e10575b610dff8183611425565b810103126105935785905138610ba5565b503d610df5565b8060025416610b76565b634e487b7160e01b865260218252602486fd5b5060405163224e54d760e01b8152fd5b60405163086b2ac360e41b8152fd5b5090346101e157806003193601126101e157610e6d61157a565b80600a5460ff811615610fc1576040516370a0823160e01b815230818601526020949092909160081c6001600160a01b03168584602481845afa93841561031b578294610f92575b5083610ef1575b85856040518181527f316a0bcd9820c43f9ba8738fd680d536a8ac65080f56f96833f696f6dd5a12fd833392a2604051908152f35b9091929350670de0b6b3a7640000610f0a8454866115a6565b0493813b156108135760408051632770a7eb60e21b815230868201908152602081019390935292849284928391859183910103925af1801561031b57908291610f7e575b5050610f5c8360085461161f565b60085580808085335af1610f6e611648565b50156107ec575038808080610ebc565b610f87906113fb565b6101e1578038610f4e565b9093508581813d8311610fba575b610faa8183611425565b8101031261059357519238610eb5565b503d610fa0565b604051635fd4000d60e11b81528490fd5b82346101e157806003193601126101e1576003546040516001600160a01b039091168152602090f35b50346101bf5760209081600319360112610813578254813592906001600160a01b03908116331461119657600a5460ff811615610fc15784156111855760081c16916040516370a0823160e01b815233828201528281602481875afa80156111365785918791611154575b501061114557670de0b6b3a76400006110808254866115a6565b04926008548411610e3457803b156111415760408051632770a7eb60e21b815233848201908152602081018890529092889284928391859183910103925af1801561113657611123575b506110d78360085461161f565b6008558480808086335af16110ea611648565b50156107ec57506040519283528201527faeb4b315a6442ab135da41b9b7b337c712b68e5a6051ef6299965f3e58dbebbb60403392a280f35b61112f909591956113fb565b93386110ca565b6040513d88823e3d90fd5b8580fd5b6040516328f48e2f60e01b8152fd5b809250848092503d831161117e575b61116d8183611425565b810103126111415784905138611066565b503d611163565b604051632688641b60e21b81528490fd5b60405163086b2ac360e41b81528390fd5b82346101e1576020610a8d6111bb366113dc565b906116ad565b82346101e157806003193601126101e1576002546040516001600160a01b039091168152602090f35b82346101e157806003193601126101e15761121a611206611447565b604051918291602083526020830190611555565b0390f35b83915061122a366113dc565b9160ff600a54166113ce575081156111855761124682826116ad565b34036113bd5782546001600160a01b0390811633146113ac5761126b346008546115ef565b6008556002821015611399578161138f5780600154165b1690604051916370a0823160e01b835230868401526020928381602481855afa90811561113657908591879161135e575b501061134d576040805163a9059cbb60e01b81523397810197885260208801869052959694959484928692909183918a9183910103925af191821561033a577f78408fb808ae2018d121a91ae47221eb4b85530dc14522ce2ddcb93083e269d693610c7c9361132f575b50506040519182913395349184611690565b8161134592903d10610ca957610c998183611425565b50858061131d565b60405163224e54d760e01b81528690fd5b809250858092503d8311611388575b6113778183611425565b8101031261114157849051886112b3565b503d61136d565b8060025416611282565b634e487b7160e01b845260218552602484fd5b60405163086b2ac360e41b81528590fd5b6040516309c860a960e31b81528490fd5b6378e34bb960e01b81528490fd5b6040906003190112610593576004356002811015610593579060243590565b67ffffffffffffffff811161140f57604052565b634e487b7160e01b600052604160045260246000fd5b90601f8019910116810190811067ffffffffffffffff82111761140f57604052565b60405190600060075490600182811c90808416938415611528575b602094858410811461151457838852879493929181156114f45750600114611495575b505061149392500383611425565b565b9093915060076000527fa66cc928b5edb82af9bd49922954155ab7b0942694bea4ce44661d9a8736c688936000915b8183106114dc57505061149393508201013880611485565b855488840185015294850194879450918301916114c4565b91505061149394925060ff191682840152151560051b8201013880611485565b634e487b7160e01b85526022600452602485fd5b91607f1691611462565b60005b8381106115455750506000910152565b8181015183820152602001611535565b9060209161156e81518092818552858086019101611532565b601f01601f1916010190565b6000546001600160a01b0316330361158e57565b60405163118cdaa760e01b8152336004820152602490fd5b818102929181159184041417156115b957565b634e487b7160e01b600052601160045260246000fd5b81156115d9570490565b634e487b7160e01b600052601260045260246000fd5b919082018092116115b957565b9060028210156116095752565b634e487b7160e01b600052602160045260246000fd5b919082039182116115b957565b67ffffffffffffffff811161140f57601f01601f191660200190565b3d15611673573d906116598261162c565b916116676040519384611425565b82523d6000602084013e565b606090565b90816020910312610593575180151581036105935790565b6040919493926116a48260608101976115fc565b60208201520152565b906116b782611ba2565b50811161198557600154604080516318160ddd60e01b8082526004936001600160a01b039391929084169060209081818881865afa80156118ea5790829161195c575b5050825184815281818881865afa9081156118ea5760009161192f575b50835182816024816370a0823160e01b97888252308d8301525afa908115611924576000916118f5575b5061174b9161161f565b946002541691835194855281858881865afa9485156118ea576000956118bb575b50819060248551809581938252308b8301525afa9283156118b15750600092611880575b505061179b9161161f565b6117a581836115ef565b948515611875576002811015611860576118585750925b6117c683856115ef565b6117d084836115ef565b91670de0b6b3a7640000958681029080820488149015171561184357906117f6916115cf565b928582029180830487149015171561182e57509161181b6118219261182a95946115cf565b906115ef565b60011c906115a6565b0490565b601190634e487b7160e01b6000525260246000fd5b601185634e487b7160e01b6000525260246000fd5b9050926117bc565b602184634e487b7160e01b6000525260246000fd5b505050505050600090565b81819392933d83116118aa575b6118978183611425565b810103126101e157505161179b38611790565b503d61188d565b513d6000823e3d90fd5b90948282813d83116118e3575b6118d28183611425565b810103126101e1575051938161176c565b503d6118c8565b84513d6000823e3d90fd5b908382813d831161191d575b61190b8183611425565b810103126101e157505161174b611741565b503d611901565b85513d6000823e3d90fd5b908282813d8311611955575b6119458183611425565b810103126101e157505138611717565b503d61193b565b813d831161197e575b61196f8183611425565b810103126105935780386116fa565b503d611965565b60405163224e54d760e01b8152600490fd5b906119a182611ba2565b5050600154604080516318160ddd60e01b8082526004936001600160a01b039391929084169060209081818881865afa80156118ea57908291611b79575b5050825184815281818881865afa9081156118ea57600091611b4c575b50835182816024816370a0823160e01b97888252308d8301525afa90811561192457600091611b1d575b50611a309161161f565b946002541691835194855281858881865afa9485156118ea57600095611aee575b50819060248551809581938252308b8301525afa9283156118b15750600092611abd575b5050611a809161161f565b611a8a81836115ef565b94851561187557600281101561186057611ab55750925b611aab838561161f565b6117d0848361161f565b905092611aa1565b81819392933d8311611ae7575b611ad48183611425565b810103126101e1575051611a8038611a75565b503d611aca565b90948282813d8311611b16575b611b058183611425565b810103126101e15750519381611a51565b503d611afb565b908382813d8311611b45575b611b338183611425565b810103126101e1575051611a30611a26565b503d611b29565b908282813d8311611b72575b611b628183611425565b810103126101e1575051386119fc565b503d611b58565b813d8311611b9b575b611b8c8183611425565b810103126105935780386119df565b503d611b82565b6001546040516370a0823160e01b808252306004830152602094936001600160a01b039390929086908290602490829088165afa938415611c56578691600095611c62575b50600254169160246040518094819382523060048301525afa948515611c5657600095611c25575b5050600281101561160957611c22579190565b90565b8181969293963d8311611c4f575b611c3d8183611425565b810103126101e1575051923880611c0f565b503d611c33565b6040513d6000823e3d90fd5b9182819692963d8311611c8d575b611c7a8183611425565b810103126101e157508590519338611be7565b503d611c70565b6020818303126105935780519067ffffffffffffffff8211610593570181601f82011215610593578051611cc78161162c565b92611cd56040519485611425565b8184526020828401011161059357611c22916020808501910161153256fea2646970667358221220deada1492bafd1e0b9659cd0bf88e2d5297d7c50378f81d37dc071a323c3e4de64736f6c6343000814003360406080815234620003d65762000d86803803806200001e81620003db565b9283398101608082820312620003d65781516001600160401b039290838111620003d657826200005091830162000401565b906020928382015190858211620003d6576200006e91830162000401565b8186015190926001600160a01b038216929091839003620003d65760600151948151818111620002d6576003908154906001948583811c93168015620003cb575b89841014620003b5578190601f938481116200035f575b508990848311600114620002f857600092620002ec575b505060001982851b1c191690851b1782555b8551928311620002d65760049586548581811c91168015620002cb575b89821014620002b6578281116200026b575b50879184116001146200020057938394918492600095620001f4575b50501b92600019911b1c19161782555b60018060a01b03193381600554161760055560065416176006553315620001dd5760025490838201809211620001c857506000917fddf252ad1be2c89b69c2b068fc378daa952ba7f163c4a11628f55a4df523b3ef9160025533835282815284832084815401905584519384523393a3516109129081620004748239f35b601190634e487b7160e01b6000525260246000fd5b602490600085519163ec442f0560e01b8352820152fd5b0151935038806200013a565b9190601f198416928760005284896000209460005b8b8983831062000253575050501062000238575b50505050811b0182556200014a565b01519060f884600019921b161c191690553880808062000229565b86860151895590970196948501948893500162000215565b87600052886000208380870160051c8201928b8810620002ac575b0160051c019086905b8281106200029f5750506200011e565b600081550186906200028f565b9250819262000286565b602288634e487b7160e01b6000525260246000fd5b90607f16906200010c565b634e487b7160e01b600052604160045260246000fd5b015190503880620000dd565b90879350601f19831691866000528b6000209260005b8d8282106200034857505084116200032f575b505050811b018255620000ef565b015160001983871b60f8161c1916905538808062000321565b8385015186558b979095019493840193016200030e565b90915084600052896000208480850160051c8201928c8610620003ab575b918991869594930160051c01915b8281106200039b575050620000c6565b600081558594508991016200038b565b925081926200037d565b634e487b7160e01b600052602260045260246000fd5b92607f1692620000af565b600080fd5b6040519190601f01601f191682016001600160401b03811183821017620002d657604052565b919080601f84011215620003d65782516001600160401b038111620002d65760209062000437601f8201601f19168301620003db565b92818452828287010111620003d65760005b8181106200045f57508260009394955001015290565b85810183015184820184015282016200044956fe608060408181526004918236101561001657600080fd5b600092833560e01c91826306fdde03146106ac57508163095ea7b31461060257816318160ddd146105e357816323b872dd146104d0578163313ce567146104b457816340c10f19146103ec5781635b8bec55146103c357816370a082311461038c57816395d89b411461026d5781639dc29fac1461017d578163a9059cbb1461012757508063dd62ed3e146100df5763def114b6146100b457600080fd5b346100db57816003193601126100db5760055490516001600160a01b039091168152602090f35b5080fd5b50346100db57806003193601126100db57806020926100fc6107cd565b6101046107e8565b6001600160a01b0391821683526001865283832091168252845220549051908152f35b82843461017a578160031936011261017a57506101426107cd565b9160018060a01b0360065416331461016c575061016560209260243590336107fe565b5160018152f35b905163ec0511b360e01b8152fd5b80fd5b839150346100db57826003193601126100db576101986107cd565b6005549091602435916001600160a01b03908116330361025e578316928315610247578385528460205285852054918383106102135750508184957fddf252ad1be2c89b69c2b068fc378daa952ba7f163c4a11628f55a4df523b3ef936020938688528785520381872055816002540360025551908152a380f35b865163391434e360e21b81526001600160a01b03909216908201908152602081018390526040810184905281906060010390fd5b8551634b637e8f60e11b8152808301869052602490fd5b508451631e29ea2960e11b8152fd5b8383346100db57816003193601126100db57805190828454600181811c90808316928315610382575b602093848410811461036f5783885290811561035357506001146102fe575b505050829003601f01601f191682019267ffffffffffffffff8411838510176102eb57508291826102e7925282610784565b0390f35b634e487b7160e01b815260418552602490fd5b8787529192508591837f8a35acfbc15ff81a39ae7d344fd709f28e8600b4aa8c65c6b64bfe7fe36bd19b5b83851061033f57505050508301018580806102b5565b805488860183015293019284908201610329565b60ff1916878501525050151560051b84010190508580806102b5565b634e487b7160e01b895260228a52602489fd5b91607f1691610296565b5050346100db5760203660031901126100db5760209181906001600160a01b036103b46107cd565b16815280845220549051908152f35b5050346100db57816003193601126100db5760065490516001600160a01b039091168152602090f35b919050346104b057806003193601126104b0576104076107cd565b60055460243592916001600160a01b0391821633036104a0571692831561048b5760025490838201809211610478575084927fddf252ad1be2c89b69c2b068fc378daa952ba7f163c4a11628f55a4df523b3ef9260209260025585855284835280852082815401905551908152a380f35b634e487b7160e01b865260119052602485fd5b84602492519163ec442f0560e01b8352820152fd5b825163294c9fd360e01b81528590fd5b8280fd5b5050346100db57816003193601126100db576020905160128152f35b9050823461017a57606036600319011261017a576104ec6107cd565b6104f46107e8565b60065460443594919391906001600160a01b03848116911681146105d457808352600160205286832033845260205286832054916000198303610540575b6020886101658989896107fe565b8683106105a857811561059157331561057a5750825260016020908152868320338452815291869020908590039055829061016587610532565b8751634a1406b160e11b8152908101849052602490fd5b875163e602df0560e01b8152908101849052602490fd5b8751637dc7a0d960e11b8152339181019182526020820193909352604081018790528291506060010390fd5b50855163ec0511b360e01b8152fd5b5050346100db57816003193601126100db576020906002549051908152f35b9050346104b057816003193601126104b05761061c6107cd565b602435903315610695576001600160a01b031691821561067e57508083602095338152600187528181208582528752205582519081527f8c5be1e5ebec7d5bd14f71427d1e84f3dd0314c0f7b2291e5b200ac8c7c3b925843392a35160018152f35b8351634a1406b160e11b8152908101859052602490fd5b835163e602df0560e01b8152808401869052602490fd5b849084346104b057826003193601126104b05782600354600181811c9080831692831561077a575b602093848410811461036f57838852908115610353575060011461072457505050829003601f01601f191682019267ffffffffffffffff8411838510176102eb57508291826102e7925282610784565b600387529192508591837fc2575a0e9e593c00f959f8c92f12db2869c3395a3b0502d05e2516446f71f85b5b83851061076657505050508301018580806102b5565b805488860183015293019284908201610750565b91607f16916106d4565b6020808252825181830181905290939260005b8281106107b957505060409293506000838284010152601f8019910116010190565b818101860151848201604001528501610797565b600435906001600160a01b03821682036107e357565b600080fd5b602435906001600160a01b03821682036107e357565b916001600160a01b038084169283156108c357169283156108aa5760009083825281602052604082205490838210610878575091604082827fddf252ad1be2c89b69c2b068fc378daa952ba7f163c4a11628f55a4df523b3ef958760209652828652038282205586815220818154019055604051908152a3565b60405163391434e360e21b81526001600160a01b03919091166004820152602481019190915260448101839052606490fd5b60405163ec442f0560e01b815260006004820152602490fd5b604051634b637e8f60e11b815260006004820152602490fdfea2646970667358221220a4188dec5a24c1236a03179956af74460a716e3f3847468e38620d7a4b63d27164736f6c63430008140033a66cc928b5edb82af9bd49922954155ab7b0942694bea4ce44661d9a8736c688",
  "devdoc": {
    "errors": {
      "OwnableInvalidOwner(address)": [
        {
          "details": "The owner is not a valid owner account. (eg. `address(0)`)"
        }
      ],
      "OwnableUnauthorizedAccount(address)": [
        {
          "details": "The caller account is not authorized to perform an operation."
        }
      ]
    },
    "kind": "dev",
    "methods": {
      "addLiquidity()": {
        "details": "Only the owner can add liquidity and only if the prediction is not reported"
      },
      "buyTokensWithETH(uint8,uint256)": {
        "params": {
          "_amountTokenToBuy": "Amount of tokens to purchase",
          "_outcome": "The possible outcome (YES or NO) to buy tokens for"
        }
      },
      "getBuyPriceInEth(uint8,uint256)": {
        "params": {
          "_outcome": "The possible outcome (YES or NO) to buy tokens for",
          "_tradingAmount": "The amount of tokens to buy"
        },
        "returns": {
          "_0": "The total ETH price"
        }
      },
      "getSellPriceInEth(uint8,uint256)": {
        "params": {
          "_outcome": "The possible outcome (YES or NO) to sell tokens for",
          "_tradingAmount": "The amount of tokens to sell"
        },
        "returns": {
          "_0": "The total ETH price"
        }
      },
      "owner()": {
        "details": "Returns the address of the current owner."
      },
      "redeemWinningTokens(uint256)": {
        "details": "Only if the prediction is resolved",
        "params": {
          "_amount": "The amount of winning tokens to redeem"
        }
      },
      "removeLiquidity(uint256)": {
        "details": "Only the owner can remove liquidity and only if the prediction is not reported",
        "params": {
          "_ethToWithdraw": "Amount of ETH to withdraw from liquidity pool"
        }
      },
      "renounceOwnership()": {
        "details": "Leaves the contract without owner. It will not be possible to call `onlyOwner` functions. Can only be called by the current owner. NOTE: Renouncing ownership will leave the contract without an owner, thereby disabling any functionality that is only available to the owner."
      },
      "report(uint8)": {
        "details": "Only the oracle can report the winning outcome and only if the prediction is not reported",
        "params": {
          "_winningOutcome": "The winning outcome (YES or NO)"
        }
      },
      "resolveMarketAndWithdraw()": {
        "details": "Only callable by the owner and only if the prediction is resolved",
        "returns": {
          "ethRedeemed": "The amount of ETH redeemed"
        }
      },
      "sellTokensForEth(uint8,uint256)": {
        "params": {
          "_outcome": "The possible outcome (YES or NO) to sell tokens for",
          "_tradingAmount": "The amount of tokens to sell"
        }
      },
      "transferOwnership(address)": {
        "details": "Transfers ownership of the contract to a new account (`newOwner`). Can only be called by the current owner."
      }
    },
    "version": 1
  },
  "userdoc": {
    "errors": {
      "PredictionMarket__MustProvideETHForInitialLiquidity()": [
        {
          "notice": "Errors //////"
        }
      ]
    },
    "events": {
      "TokensPurchased(address,uint8,uint256,uint256)": {
        "notice": "Events //////"
      }
    },
    "kind": "user",
    "methods": {
      "addLiquidity()": {
        "notice": "Add liquidity to the prediction market and mint tokens"
      },
      "buyTokensWithETH(uint8,uint256)": {
        "notice": "Buy prediction outcome tokens with ETH, need to call priceInETH function first to get right amount of tokens to buy"
      },
      "constructor": {
        "notice": "Checkpoint 8 ///"
      },
      "getBuyPriceInEth(uint8,uint256)": {
        "notice": "Calculate the total ETH price for buying tokens"
      },
      "getPrediction()": {
        "notice": "Get the prediction details"
      },
      "getSellPriceInEth(uint8,uint256)": {
        "notice": "Calculate the total ETH price for selling tokens"
      },
      "i_yesToken()": {
        "notice": "Checkpoint 2 ///"
      },
      "redeemWinningTokens(uint256)": {
        "notice": "Redeem winning tokens for ETH after prediction is resolved, winning tokens are burned and user receives ETH"
      },
      "removeLiquidity(uint256)": {
        "notice": "Remove liquidity from the prediction market and burn respective tokens, if you remove liquidity before prediction ends you got no share of lpReserve"
      },
      "report(uint8)": {
        "notice": "Report the winning outcome for the prediction"
      },
      "resolveMarketAndWithdraw()": {
        "notice": "Owner of contract can redeem winning tokens held by the contract after prediction is resolved and get ETH from the contract including LP revenue and collateral back"
      },
      "s_isReported()": {
        "notice": "Checkpoint 5 ///"
      },
      "s_question()": {
        "notice": "Checkpoint 3 ///"
      },
      "sellTokensForEth(uint8,uint256)": {
        "notice": "Sell prediction outcome tokens for ETH, need to call priceInETH function first to get right amount of tokens to buy"
      }
    },
    "version": 1
  },
  "storageLayout": {
    "storage": [
      {
        "astId": 8,
        "contract": "contracts/PredictionMarket.sol:PredictionMarket",
        "label": "_owner",
        "offset": 0,
        "slot": "0",
        "type": "t_address"
      },
      {
        "astId": 998,
        "contract": "contracts/PredictionMarket.sol:PredictionMarket",
        "label": "i_yesToken",
        "offset": 0,
        "slot": "1",
        "type": "t_contract(PredictionMarketToken)2446"
      },
      {
        "astId": 1001,
        "contract": "contracts/PredictionMarket.sol:PredictionMarket",
        "label": "i_noToken",
        "offset": 0,
        "slot": "2",
        "type": "t_contract(PredictionMarketToken)2446"
      },
      {
        "astId": 1003,
        "contract": "contracts/PredictionMarket.sol:PredictionMarket",
        "label": "i_oracle",
        "offset": 0,
        "slot": "3",
        "type": "t_address"
      },
      {
        "astId": 1005,
        "contract": "contracts/PredictionMarket.sol:PredictionMarket",
        "label": "i_initialTokenValue",
        "offset": 0,
        "slot": "4",
        "type": "t_uint256"
      },
      {
        "astId": 1007,
        "contract": "contracts/PredictionMarket.sol:PredictionMarket",
        "label": "i_initialYesProbability",
        "offset": 0,
        "slot": "5",
        "type": "t_uint256"
      },
      {
        "astId": 1009,
        "contract": "contracts/PredictionMarket.sol:PredictionMarket",
        "label": "i_percentageLocked",
        "offset": 0,
        "slot": "6",
        "type": "t_uint256"
      },
      {
        "astId": 1012,
        "contract": "contracts/PredictionMarket.sol:PredictionMarket",
        "label": "s_question",
        "offset": 0,
        "slot": "7",
        "type": "t_string_storage"
      },
      {
        "astId": 1014,
        "contract": "contracts/PredictionMarket.sol:PredictionMarket",
        "label": "s_ethCollateral",
        "offset": 0,
        "slot": "8",
        "type": "t_uint256"
      },
      {
        "astId": 1016,
        "contract": "contracts/PredictionMarket.sol:PredictionMarket",
        "label": "s_lpTradingRevenue",
        "offset": 0,
        "slot": "9",
        "type": "t_uint256"
      },
      {
        "astId": 1019,
        "contract": "contracts/PredictionMarket.sol:PredictionMarket",
        "label": "s_isReported",
        "offset": 0,
        "slot": "10",
        "type": "t_bool"
      },
      {
        "astId": 1022,
        "contract": "contracts/PredictionMarket.sol:PredictionMarket",
        "label": "s_winningToken",
        "offset": 1,
        "slot": "10",
        "type": "t_contract(PredictionMarketToken)2446"
      }
    ],
    "types": {
      "t_address": {
        "encoding": "inplace",
        "label": "address",
        "numberOfBytes": "20"
      },
      "t_bool": {
        "encoding": "inplace",
        "label": "bool",
        "numberOfBytes": "1"
      },
      "t_contract(PredictionMarketToken)2446": {
        "encoding": "inplace",
        "label": "contract PredictionMarketToken",
        "numberOfBytes": "20"
      },
      "t_string_storage": {
        "encoding": "bytes",
        "label": "string",
        "numberOfBytes": "32"
      },
      "t_uint256": {
        "encoding": "inplace",
        "label": "uint256",
        "numberOfBytes": "32"
      }
    }
  }
}